:020000040000FA
:0600000074EF0AF012008B
:020006001200E6
:060008001AEF00F01200E7
:02000E000300ED
:10001000D3170000000300004C0000002E17000062
:10002000C0030000A50000002E150000000800001D
:0400300000020000CA
:0C003400DACFE4FFE2CFDAFFE9CFE4FF0F
:10004000EACFE4FFE652D9CFE6FFE1CFD9FFE6528F
:1000500081500001E56FE66BF29003013C2B000E2E
:100060003D233E233F2303014A514B1102E1888E79
:10007000889004012A0E3E6FA4AAD6D08D78030181
:10008000285129110AE003012B51050806E28D943D
:100090008D928A920301286B296B6BA202D06B9818
:1000A0006B886E50DF6E03014A514B112AE0030149
:1000B000D890475104E6000E465D010E47591CE2F8
:1000C000000E03014625E96E090E03014721EA6E81
:1000D0006ECFEFFFACA2FED7000E03014625E96EFE
:1000E000090E03014721EA6EEF50AD6E0301462B66
:1000F000000E4723917404D00301010E456F9178DF
:1001000093D003012A2B8D808D50010B02E08D8E40
:1001100001D08D9E010E03011C6F1D6B03010A515E
:100120000B1126E0030102C3E9FF03C3EAFF022B20
:10013000000E0323600EE926000EEA22DFCFEFFF58
:100140008D808D50010B02E08D8E01D08D9EFF0EB3
:10015000DF5C0EE103010A510B110AE0010E0301FD
:10016000006F016B0401596B5A6B03010A6B0B6B37
:10017000FE0EDF5C1CE103010051011118E1010ECC
:1001800003010A6F0B6B010E0301126F136B040165
:10019000596B5A6B0301006B016B0301026B036B1C
:1001A00084808450010B02E0848E01D0849EF50E81
:1001B000DF5C14E1010E0301126F136B0401596B34
:1001C0005A6B889C0301F00E1E6FD80E1F6F84803F
:1001D0008450010B02E0848E01D0849E030103351C
:1001E00004E202517E08000E035509E20301026B8E
:1001F000036B03010A6B0B6B0301006B016B0301C3
:100200002A511C6E1D6A1D3404E21C508008000E29
:100210001D540AE284808450010B02E0848E01D0D8
:10022000849E03012A2BFDD79EAA60D08D76ABA2B7
:1002300002D0AB98AB8803014A514B112EE0030169
:10024000D890495104E6000E485D010E49591CE260
:10025000000E03014825E96E080E03014921EA6EEC
:10026000AECFEFFF6CA2FED7000E03014825E96E6A
:10027000080E03014921EA6EEF506D6E0301482B11
:10028000000E4923917208D0AE500001E16FE26B7D
:100290000301010E446F917629D0AE500001E16F49
:1002A000E26B010E03011A6F1B6B0001460EE11990
:1002B00001E1E25106E1010E03010E6F0F6B030134
:1002C0002A6B0001370EE11901E1E25106E1010E4E
:1002D0000301106F116B03012A6B00013C0EE11941
:1002E00001E1E25103E10301166B176BE552E552A0
:1002F000E7CFD9FFE552E5CFEAFFE5CFE9FFE5CF4C
:10030000DAFF1100D9CFE6FFE1CFD9FF94EC0AF074
:10031000570EE66EF90EDBCFE6FFFA0EDBCFE6FFF7
:1003200012EC09F0E552E552E55294EC0AF0FD0EAC
:10033000DBCFE6FFF90EDBCF14F0FA0EDBCF15F0C2
:10034000010E1426000E152214C0E6FF15C0E6FFAC
:1003500012EC09F0E552E552E55294EC0AF0FE0E7B
:10036000DBCFE6FF020EE76EFB0EDBCF16F0FC0ED6
:10037000DBCF17F0E7501626000E1722F90EDB50E0
:100380001624146EFA0EDB501720156E14C0E6FF0B
:1003900015C0E6FF12EC09F0E552E552E552E552D0
:1003A000E7CFD9FF1200D9CFE6FFE1CFD9FF94EC18
:1003B0000AF0FB0EDBCF16F0FC0EDBCF17F0FD0EC4
:1003C000DB501624146EFE0EDB501720156E14C081
:1003D000E6FF15C0E6FF86EC09F0E552E55200D0D5
:1003E000E552E7CFD9FF1200D9CFE6FFE1CFD9FF21
:1003F000020EE126DE6ADD6ADECF14F0DDCF15F0F5
:10040000FD0EDBCF16F0FE0EDBCF17F01450165C9E
:100410001550175806E30400DF2A010E01E3DB2A1A
:10042000EBD7020EE15C02E2E16AE552E16EE552D1
:10043000E7CFD9FF120003010051011118E00001BC
:100440006051060808E35A0E0001615D04E30401EF
:100450005F2B000E6023720E0001605D08E35A0EF0
:100460000001615D04E304015F2B000E60230401C1
:10047000050E5F5D000E605910E3010E0301286F49
:10048000296B03012B6B8D8404015F6B606B8D8284
:100490008A820001606B0001616B1200D9CFE6FF18
:1004A000E1CFD9FF887A6CA2FED7FD0EDBCFE9FF42
:1004B000FE0EDBCFEAFFEF50E66E46EC0AF0E552A7
:1004C000300EE66E750EE66E8FDFE552E5526CA2D9
:1004D000FED7E552E7CFD9FF1200D9CFE6FFE1CF33
:1004E000D9FF030EE126020EDB6A02D0020EDB6AA0
:1004F000DE6ADD6ADECF14F0DDCF15F0D89015503E
:1005000004E60C0E145C000E155827E2020EDB50B8
:1005100010E0DECF14F0DDCF15F04B0E1426040EE4
:10052000152214C0E6FF15C0E6FFB8DFE552E5521C
:100530000FD0DECF14F0DDCF15F03F0E1426040EE1
:10054000152214C0E6FF15C0E6FFA8DFE552E5520C
:10055000DF2A010E01E3DB2ACDD70301166B176BEF
:10056000030EE15C02E2E16AE552E16EE552E7CF9B
:10057000D9FF1200D9CFE6FFE1CFD9FFACA2FED759
:10058000FD0EDBCFE6FF5DEC0AF0E552E552E7CF6A
:10059000D9FF1200D9CFE6FFE1CFD9FF6CA2FED779
:1005A000FD0EDBCFE6FF46EC0AF0E552E552E7CF61
:1005B000D9FF1200100EE66E270EE66E15DFE5522B
:1005C000E552100EE66E270EE66E0EDFE552E5529E
:1005D000100EE66E270EE66E07DFE552E552200E9E
:1005E000E66E4E0EE66E00DFE552E55212006CA29A
:1005F000FED7460EE66EE66ACDDFE552E552300ED6
:10060000E66E750EE66EF0DEE552E55203011C5112
:100610001D1106E062DF010EF36EF46A05D004D00E
:100620005CDFF36AF46A00D01200D9CFE6FFE1CFB5
:10063000D9FF170EE126020EDB6A030EDB6A070EF6
:10064000DB6A080EDB6A800EF36E090EF3CFDBFF68
:100650003F0EF36E0A0EF3CFDBFF0F0EDB6A100EB8
:10066000DB6A800EF36E110EF3CFDBFF3F0EF36EED
:10067000120EF3CFDBFF9A6A996A966A8D6A8D949F
:10068000936A8A92876A95680301346B356B366B7F
:10069000376B0301286B296BF26AF16AF06A000E6E
:1006A000E66EE66A000EE66EE66A7DDEE552E5522B
:1006B000E552E552570804E1010E0301246F256B52
:1006C000E66A020EE66E000EE66EE66A6CDEE55243
:1006D000E552E552E552570804E1010E0301266F89
:1006E000276BF70EE66E120EE66E000EE66E1A0E21
:1006F000E66E040EE66E16EC0AF0146E050EE15E70
:10070000145058DFE30EE66E120EE66E000EE66E33
:100710001A0EE66E040EE66E16EC0AF0146E050E66
:10072000E15E145047DF400EE66EE66A6C0EE66E40
:10073000D0EC08F0E552E552E552400EE66EE66A6E
:100740006C0EE66E8BEC08F0E552E552E5529EAA7F
:1007500009D0F7EC09F00301086F096B800B01E089
:100760000969F5D7A4AA09D0D8EC09F00301086FEC
:10077000096B800B01E00969F5D7D09E9D8AA38A99
:10078000F296F180F28EF28CCF0EE66E120EE66ECD
:10079000000EE66E1A0EE66E040EE66E16EC0AF019
:1007A000146E050EE15E145005DF97DE88680301C4
:1007B0001A6B1B6B03011C6B1D6B67D00400917CD3
:1007C0000301445103E1030145515EE0040EDB6A7D
:1007D000050EDB6AD950040FE96EDACFEAFFFF0E8F
:1007E000D880EE54000EED5449E39170F29EF29CD5
:1007F00094EC0AF0040EDBCFE9FF050EDBCFEAFF35
:10080000000EE926080EEA22EF50E66E040EDBCF5A
:10081000E6FF050EDBCFE6FF12EC09F0E552E552EC
:10082000E552040094EC0AF0040EDBCFE9FF050E5C
:10083000DBCFEAFF000EE926090EEA22EF50E66E52
:10084000040EDBCF14F0050EDBCF15F0000E1426DE
:10085000010E152214C0E6FF15C0E6FF12EC09F0E8
:10086000E552E552E55294EC0AF0F28EF28C040067
:10087000040EDB2A050E01E3DB2AACD7F29EF29CC4
:1008800003D0916A0400FCD798D7B1DEF3CF14F0FF
:10089000F4CF15F01450151026E003011251131176
:1008A00011E0BE0EE66E120EE66E000EE66E1A0E39
:1008B000E66E040EE66E16EC0AF0146E050EE15EAE
:1008C000145010D0AD0EE66E120EE66E000EE66EFF
:1008D0001A0EE66E040EE66E16EC0AF0146E050EA5
:1008E000E15E145010D09C0EE66E120EE66E000E05
:1008F000E66E1A0EE66E040EE66E16EC0AF0146E44
:10090000050EE15E145003012CC314F02DC315F045
:100910002EC316F02FC317F02C2B000E2D232E23E1
:100920002F23200E03011E25186E4E0E03011F21DA
:10093000196E1A6A1B6A19AE02D01A681B68175022
:100940001B18E8AE02D01B3408D01850145C1950A4
:1009500015581A5016581B50175801E2E7D0020ECE
:10096000DBCF14F0DB2A030EDBCF15F001E3DB2A2B
:10097000020ED8801454000E155408E200017C0EBB
:10098000E06F020EDB6A030EDB6A03D000012D0E5E
:10099000E06F888288848886020E0301301905E1A1
:1009A000315103E1325101E1335101E18892040EEA
:1009B0000301301905E1315103E1325101E13351B5
:1009C00001E18894080E0301301905E1315103E17A
:1009D000325101E1335101E18896877003012B51B7
:1009E000050801E28D9403012B2B84708450010BC8
:1009F00002E0848E01D0849E25D0040159C414F0F5
:100A00005AC415F0592B000E5A233C0E145C000EEC
:100A1000155808E303011251131104E1CBDD5DDD2C
:100A2000FFD710D00401960E595D000E5A590AE303
:100A300003011251131106E00301126B136B040141
:100A4000596B5A6B03010651071115E00301305130
:100A50003111321133110FE030C330F331C331F3B0
:100A600032C332F333C333F30301D8903037313715
:100A70003237333725D00301305131113211331160
:100A80001FE030C330F331C331F332C332F333C329
:100A900033F3020E0B6E0C6A0D6A0E6A30C306F059
:100AA00031C307F032C308F033C309F053EC07F049
:100AB00006C030F307C031F308C032F309C033F386
:100AC000D89003013351000A08E6020E305D000E93
:100AD0003159000E3259000E33590BE20301020E58
:100AE000306F316B326B336B010E0301066F076B96
:100AF00018D003013335000E331909E6D880080EEB
:100B00003055000E3155000E3255000E335509E2B6
:100B10000301080E306F316B326B336B0301066BD0
:100B2000076B03012C6B2D6B2E6B2F6B887883DC8E
:100B300003010E510F1101E1ADD088800301005176
:100B4000011101E18DD04B0EE66E2FEC0AF0E5525B
:100B5000FE0EE66EE66A0EDDE552E55260C009F073
:100B6000D5EC06F0070EDBCF0CF0080EDBCF0DF056
:100B7000090EDBCF0EF00A0EDBCF0FF0E6EC06F02D
:100B80000B0E07C0DBFF0C0E08C0DBFF0D0E09C00B
:100B9000DBFF0E0E0AC0DBFF0B0EDBCF07F00C0EE7
:100BA000DBCF08F00D0EDBCF09F00E0EDBCF0AF025
:100BB00087EC07F0060E08C0DBFF060EDBCFE6FF72
:100BC000E66AD8DCE552E55261C009F0D5EC06F0E2
:100BD0000F0EDBCF0CF0100EDBCF0DF0110EDBCFC4
:100BE0000EF0120EDBCF0FF0E6EC06F0130E07C08E
:100BF000DBFF140E08C0DBFF150E09C0DBFF160E6D
:100C00000AC0DBFF130EDBCF07F0140EDBCF08F0BA
:100C1000150EDBCF09F0160EDBCF0AF087EC07F0DC
:100C2000060E08C0DBFF060EDBCFE6FFE66AA2DC9D
:100C3000E552E552FF0EE66EE66A9CDCE552E552AF
:100C40000301026B036B0301342B000E35233623A3
:100C500037230301006B016B03010E6B0F6B1AD07E
:100C6000410EE66E2FEC0AF0E552F50EE66EE66AEE
:100C700081DCE552E552FF0EE66EE66A7BDCE5526A
:100C8000E5520301402B000E41234223432303017D
:100C90000E6B0F6B03011051111156E0889E4B0E25
:100CA000E66E2FEC0AF0E552070EDB6A080EDB6AEF
:100CB000800EF36E090EF3CFDBFF3F0EF36E0A0ECC
:100CC000F3CFDBFF0F0EDB6A100EDB6A800EF36ED4
:100CD000110EF3CFDBFF3F0EF36E120EF3CFDBFFEF
:100CE0003D0EE66EE66A56DCE552E552F40EE66E1F
:100CF000E66A40DCE552E552770EE66EE66A3ADCDB
:100D0000E552E5525F0EE66EE66A34DCE552E552E6
:100D10000CD0710EE66EE66A2DDCE552E552590EF6
:100D2000E66EE66A27DCE552E552FF0EE66EE66AFD
:100D300021DCE552E5520301382B000E39233A231A
:100D40003B230301106B116B03010A510B1100E0EF
:100D500003011651171102E06DEC02F0ABA20ED0A8
:100D600088688450146E156A020E141801E115503B
:100D700002E1000E01D0010EAB98AB886BA209D046
:100D80008868080E845C02E1000E01D0010E6B98A9
:100D90006B880400B8D5170EE15C02E2E16AE55207
:0A0DA000E16EE552E7CFD9FF120023
:060DAA00019E05D0019E30
:100DB00009AE02D0096C018E09C003F0026A136A01
:100DC000126A860E046E056AD2EF07F0016A0EEC15
:100DD00008F026EC08F001B6B6EF07F001A205D046
:100DE00001B8B6EF07F0BDEF07F001AA05D001B0DA
:100DF000B6EF07F0BDEF07F001B002D001A802D0B6
:100E0000C9EF07F0056A0F500A24046EE86A05224C
:100E10007E0E045EE86A055A126A136A026A036A61
:100E20000E500902F4CF03F0F3CF02F00D50090287
:100E3000F3501326F4500222000E03220E50080233
:100E4000F3501326F4500222000E03220C50090224
:100E5000F3501226F4501322000E022203220D50EA
:100E60000802F3501226F4501322000E022203222D
:100E70000E500702F3501226F4501322000E0222E5
:100E800003220C500802F4501226000E13220222F4
:100E900003220D500702F4501226000E13220222E4
:100EA0000322D2EF07F0006AE86A0EAE60EF07F0A7
:100EB0000B6C0C1E0D1E0E1E0C220D220E22001E8F
:100EC00009AE6BEF07F0066C071E081E091E07220D
:100ED00008220922001EB4EC09F009BE82EF07F0D7
:100EE00000AE000C066C071E081E091EE86A0722E9
:100EF00008220922026C031E041E051E032204227E
:100F00000522000C00BE72EF07F00188FF0C016A99
:100F10000EEC08F001B691EF07F001A20ED001B47B
:100F200005D07F0E096EFF0E086E1FD0800E096E71
:100F3000086A1BD0096A086A18D001B0FBD78F0E67
:100F40000A60EDD77E0E0A64F5D78E0E0A5C05E0C6
:100F5000D890093208320A2AF8D701A406D0086CC2
:100F6000091EE86A092209AEE5D712007F0E0A6E53
:100F7000FF0E096E086E076E12007F0E01BEFF0E97
:100F80000A6E02D07F0E0A6E800E096E086A076A2A
:100F9000F3D701AE04D0800E0A6E096AF7D70A6A49
:100FA000096AF4D70350021013101210F8E005BEBE
:100FB000F0D703BE0CD004500510EBE0D8901236E9
:100FC0001336023603360406D8A00506F2D70550BC
:100FD000D4E10428D2E012AE11D07F0E121402E147
:100FE00013A00CD0132AE86A0222032207E3D88058
:100FF000033202321332042A0428BFE00450C9E04D
:1010000013C007F002C008F00334096E04300A6E02
:1010100009320A9E01BE0A8EBCEF07F009360A3675
:1010200002E30184017E06E101800A6A096A086A16
:10103000076A12000A2803E0D88009321200D8900B
:10104000093202E101821200018612000E360F36CB
:1010500002E3018C017E06E101880F6A0E6A0D6AC7
:101060000C6A12000F2803E0D8800E321200D890CC
:081070000E32EAE1018A1200D0
:081078000E0EF66E000EF76E7D
:10108000000EF86E00010900F550EC6F0900F550F4
:10109000ED6F03E1EC6701D03DD00900F550E76F3B
:1010A0000900F550E86F0900F550E96F09000900E3
:1010B000F550E96E0900F550EA6E090009000900D3
:1010C000F550EA6F0900F550EB6F09000900F6CF03
:1010D000EEF0F7CFEFF0F8CFF0F0E7C0F6FFE8C0A2
:1010E000F7FFE9C0F8FF0001EA5302E1EB5307E024
:1010F0000900F550EE6EEA07F8E2EB07F9D7EEC00B
:10110000F6FFEFC0F7FFF0C0F8FF0001EC07000E9C
:06111000ED5BBFD71200E9
:0A111600D9CFE6FFDACFE6FFE1CF04
:10112000D9FFE2CFDAFF6C6A6B6AFD0EDBB06C8828
:10113000DBA202D06C8C6B8CDBB46C8EDBA602D095
:101140006B8801D06B8ADBA802D06C8401D06C94D0
:10115000DBBA6B86DBAC02D0A38A01D0A39ADBAEEC
:1011600002D0A38801D0A398FB0EDB506F6EFC0E5B
:10117000DBCF15F015C014F0156A14507D6E6C8A23
:101180006B8E989298846C50100B04E06C50800B1E
:1011900001E19882E552E5CFDAFFE7CFD9FF1200EF
:1011A000D9CFE6FFDACFE6FFE1CFD9FFE2CFDAFF12
:1011B000AC6AAB6AFD0EDBB0AC88DBA202D0AC8CB3
:1011C000AB8CDBB4AC8EDBA602D0AB8801D0AB8A93
:1011D000DBB8AC84DBBAAB86DBAC02D09D8A01D035
:1011E0009D9ADBAE02D09D8801D09D98FB0EDB500E
:1011F000AF6EFC0EDBCF15F015C014F0156A14505D
:101200007F6EAC8AAB8E949C948EAC50100B04E035
:10121000AC50800B01E1948CE552E5CFDAFFE7CFCB
:04122000D9FF1200E0
:0C122400D9CFE6FFDACFE6FFE1CFD9FF1B
:10123000E2CFDAFFE652DF6AFD0EDBCF15F015C014
:1012400014F0030E1514AA6EFF0EE76EFC0EDBCF32
:1012500014F0E7501416156A1450A96EFB0EDB50FB
:10126000A86EA69EA69CA684F250800B01E0010EFB
:10127000DF6EF29E550EA76EAA0EA76EA682A6B2CC
:10128000FED7DF50E8B0F28EE8A0F29EA694E552B9
:0C129000E552E5CFDAFFE7CFD9FF1200EE
:04129C0053746174B2
:1012A00075733A4E6F2053637265656E00537461B7
:1012B0007475733A434F4D32204461746100537426
:1012C000617475733A4F4B20545320202020004303
:1012D0006F6E6669677572652053637265656E200F
:1012E000202000506F7765722075702064656C61F6
:1012F00079202020202000426F6F74696E67205093
:0B130000726F6772616D2020202000DA
:04130C00D9CFE6FF50
:10131000DACFE6FFE1CFD9FFE2CFDAFFFC0EDBCF79
:1013200014F0FD0EDBCF15F015C014F0156A030E96
:101330001414AA6EFF0EE76EFC0EDBCF14F0FD0E48
:10134000DBCF15F0E7501416156A1450A96EA69C51
:10135000A69EA68000000000A85000D0E552E5CF70
:08136000DAFFE7CFD9FF12000C
:08136800056A046A036A026AC7
:10137000200EE76ED8900636073608360936023654
:101380000336043605360B50025C0C5003580D50E2
:1013900004580E50055809E30B50025E0C50035AD6
:1013A0000D50045A0E50055A062AE72EE4D71200B3
:1013B000D9CFE6FFDACFE6FFE1CFD9FFE2CFDAFF00
:1013C000E652F20E0001F1176BAC03D0F1916BB055
:1013D000F1816BB4F1856BB2F1876E50DF6EDF5037
:0E13E000E552E552E5CFDAFFE7CFD9FF120064
:0213EE00D9CF55
:1013F000E6FFDACFE6FFE1CFD9FFE2CFDAFFE65230
:10140000F20E0001F217ABAC03D0F291ABB0F28157
:10141000ABB4F285ABB2F287AE50DF6EDF50E5526F
:0C142000E552E5CFDAFFE7CFD9FF12005C
:04142C00FB0EE3CF01
:10143000F6FFFC0EE3CFF7FFFD0EE3CFF8FFFE0E45
:10144000E3CFE9FFFF0EE3CFEAFFE9CFF3FFEACFF7
:0E145000F4FF0900F5CFEFFFEE66FBD71200A8
:02145E00FF0E7F
:10146000E3501F6EEF0E01D0F30EE76EE72E36EF5E
:101470000AF00C0E1E6EE76AE72E3CEF0AF01E2EF5
:0C1480003BEF0AF01F2E34EF0AF01200C0
:04148C00D9CFE6FFCF
:10149000DACFE6FFE1CFD9FFE2CFDAFF6CAC04D0C0
:1014A0006C900001F1B36C80FD0EDB506D6EE55267
:0A14B000E5CFDAFFE7CFD9FF120005
:0614BA00D9CFE6FFDACFF6
:1014C000E6FFE1CFD9FFE2CFDAFFACAC04D0AC90BD
:1014D0000001F2B3AC80FD0EDB50AD6EE552E5CFFE
:0814E000DAFFE7CFD9FF12008B
:0814E8001DEE00F02DEE00F0F6
:1014F000F86A019C84EC0AF03CEC08F003EC00F084
:0815000015EC03F0FBD712000B
:08150800600EF36E00EE00F02E
:101510000F0E01D81200EA6002D0EE6AFCD7F35039
:08152000E9601200EE6AFCD73D
:06152800A6B2FED712007E
:02152E00480073
:1015300000000000000000000000000000000000AB
:10154000000000000000000000000000000000009B
:10155000000000000000000000000000000000008B
:10156000000000000000000000000000000000007B
:10157000000000000000000000000000000000006B
:10158000000000000000000000000000000000005B
:10159000000000000000000000000000000000004B
:1015A000000000000000000000000000000000003B
:1015B000000000000000000000000000000000002B
:1015C000000000000000000000000000000000001B
:1015D000000000000000000000000000000000000B
:1015E00000000000000000000000000000000000FB
:1015F00000000000000000000000000000000000EB
:1016000000000000000000000000000000000000DA
:1016100000000000000000000000000000000000CA
:101620000000000000000000000000000000530067
:1016300000000000000000000000000000000000AA
:10164000000000000000000000000000000000009A
:10165000000000000000000000000000000000008A
:10166000000000000000000000000000000000007A
:10167000000000000000000000000000000000006A
:10168000000000000000000000000000000000005A
:10169000000000000000000000000000000000004A
:1016A000000000000000000000000000000000003A
:1016B000000000000000000000000000000000002A
:1016C000000000000000000000000000000000001A
:1016D000000000000000000000000000000000000A
:1016E00000000000000000000000000000000000FA
:1016F00000000000000000000000000000000000EA
:1017000000000000000000000000000000000000D9
:1017100000000000000000000000000000000000C9
:0E1720000000000000000000000000000000BB
:02172E00435224
:10173000544649582045312E31394642207C00001C
:101740004400000000000000000000000000000055
:101750000000546F756368656400000000000000BD
:101760000000000020202000000000000000000019
:101770000000000000004445425547206A6D707229
:1017800023362020207C0000506F77657220557032
:1017900020202020202020200000537461747573C5
:1017A0003A204F4B2020202020000303200D0D0D58
:1017B0000D0D3C2B4426443D2A0D0D0D0D0D3C2BEB
:1017C0004425443D2A000000000000000000000005
:0317D00000000016
:0D17D3000000000000000100000000000008
:1017E0000000000000000084030000010000000071
:1017F00000000000000000000000000000000000E9
:1018000000000000000000000000000000000000D8
:0F181000000000000000000000000000000000C9
:020000040030CA
:0100010006F8
:010002001FDE
:0100030013E9
:01000400F308
:010005008377
:010006008574
:01000800FFF8
:01000900C036
:01000A00FFF6
:01000B00E014
:01000C00FFF4
:01000D0040B2
:00000001FF
