:020000040000FA
:0600000090EF03F0120076
:0600080022EF00F01200DF
:06002A0002004407000083
:1000300084010000160000003807000000040000E2
:040040000C000000B0
:0C004400DACFE4FFE2CFDAFFE9CFE4FFFF
:10005000EACFE4FFF6CFE4FFF7CFE4FFF5CFE4FF0C
:10006000F3CFE4FFF4CFE4FFFACFE4FF00EE00F0BB
:10007000100EE80403E3EECFE4FFFBD700EE10F030
:10008000040EE80403E3EECFE4FFFBD7E652D9CF3A
:10009000E6FFE1CFD9FF030EE126816A04005AECA6
:1000A00003F0DF6EDF500101806F816B0F0E816EF8
:1000B0000101460E801901E1815123E1010E010188
:1000C000846F856B010E0101906F916BACA2FED71E
:1000D0003D0EE66E79EC03F0E552ACA2FED7440E7D
:1000E000E66E79EC03F0E552ACA2FED7040E816E09
:1000F000010E01018E6F8F6B0101846B856B9E9ADF
:1001000028D00101370E801901E181511FE1010E54
:100110000101906F916BACA2FED73D0EE66E79ECBB
:1001200003F0E552ACA2FED7440EE66E79EC03F084
:10013000E552ACA2FED7370EE66E79EC03F0E5523D
:10014000ACA2FED7040E816E9E9A03D0040E816E7F
:100150009E9A030EE15C02E2E16AE552E16EE5522D
:10016000E7CFD9FFE55200EE13F0040EE80403E3F5
:10017000E5CFEDFFFBD700EE0FF0100EE80403E330
:10018000E5CFEDFFFBD7E5CFFAFFE5CFF4FFE5CFF5
:10019000F3FFE5CFF5FFE5CFF7FFE5CFF6FFE5CFBE
:1001A000EAFFE5CFE9FFE5CFDAFF1100D9CFE6FF9F
:1001B000E1CFD9FF020EE126DE6ADD6ADECF10F064
:1001C000DDCF11F0FD0EDBCF12F0FE0EDBCF13F012
:1001D0001050125C1150135808E30F0E816E04008A
:1001E000DF2A010E01E3DB2AE9D7020EE15C02E21D
:1001F000E16AE552E16EE552E7CFD9FF1200D9CFAF
:10020000E6FFE1CFD9FF816AACA2FED7FD0EDBCFBE
:10021000E9FFFE0EDBCFEAFFEF50E66E79EC03F06C
:10022000E552300EE66E750EE66EC0DFE552E55221
:10023000ACA2FED7020E816EE552E7CFD9FF1200C5
:10024000D9CFE6FFE1CFD9FF020EE126936A810EF6
:10025000E66EE66A7C0EE66E02EC03F0E552E552CD
:10026000E552D08E9F8AF28E000EE66E040EE66E88
:10027000C6DFE552E552010EE66E040EE66EBFDF04
:10028000E552E552020EE66E040EE66EB8DFE55268
:10029000E552030EE66E040EE66EB1DFE552E5525E
:1002A000040EE66E040EE66EAADFE552E552050E78
:1002B000E66E040EE66EA3DFE552E552060EE66E2C
:1002C000040EE66E9CDFE552E552070EE66E040E64
:1002D000E66E95DFE552E552080EE66E040EE66E18
:1002E0008EDFE552E552090EE66E040EE66E87DFFC
:1002F000E552E5520A0EE66E040EE66E80DFE55228
:10030000E5520B0EE66E040EE66E79DFE552E5521D
:100310009EAA09D05AEC03F001018C6F8D6B800B03
:1003200001E08D69F5D7D08E9F8AF28E0F0E816E17
:10033000010192C110F093C111F094C112F095C166
:1003400013F0922B000E932394239523D8901350EF
:10035000000A08E6200E105C4E0E1158000E1258CE
:10036000000E135801E284D096C110F097C111F02D
:1003700098C112F099C113F00E0E1016116A126A8C
:10038000136A1050816E01018A518B1115E0010131
:1003900096519711981199110FE096C196F197C156
:1003A00097F198C198F199C199F10101D8909637C8
:1003B00097379837993725D00101965197119811A1
:1003C00099111FE096C196F197C197F198C198F1E4
:1003D00099C199F1020E0B6E0C6A0D6A0E6A96C1F4
:1003E00006F097C107F098C108F099C109F0CEEC6A
:1003F00002F006C096F107C097F108C098F109C055
:1004000099F1D89001019951000A08E6020E965D13
:10041000000E9759000E9859000E99590BE20101F0
:10042000020E966F976B986B996B010E01018A6FA4
:100430008B6B18D001019935000E991909E6D88007
:10044000080E9655000E9755000E9855000E9955BA
:1004500009E20101080E966F976B986B996B010189
:100460008A6B8B6B0101926B936B946B956B0400A1
:1004700001018E518F1138E0ACA2FED73D0EE66E21
:1004800079EC03F0E552ACA2FED7440EE66E79ECAF
:1004900003F0E552DE6ADD6AD9CFE9FFDACFEAFF81
:1004A000A80ED880EE54610EED5405E3DF2A010E4C
:1004B00001E3DB2AF1D70101905191110EE0ACA2CA
:1004C000FED7460EE66E79EC03F0E552ACA2FED7FD
:1004D000430EE66E79EC03F0E552010E0101906FD8
:1004E000916B01018E6B8F6B23D7020EE15C02E2F0
:0E04F000E16AE552E16EE552E7CFD9FF120056
:0204FE002A0EC4
:10050000F66E000EF76E000EF86E01010900F55050
:100510009F6F0900F550A06F03E19F6701D03DD0A8
:100520000900F5509A6F0900F5509B6F0900F550CE
:100530009C6F09000900F550E96E0900F550EA6E5C
:10054000090009000900F5509D6F0900F5509E6FE4
:1005500009000900F6CFA1F1F7CFA2F1F8CFA3F17E
:100560009AC1F6FF9BC1F7FF9CC1F8FF01019D53A3
:1005700002E19E5307E00900F550EE6E9D07F8E298
:100580009E07F9D7A1C1F6FFA2C1F7FFA3C1F8FFEB
:0C05900001019F07000EA05BBFD7120006
:04059C00006AE86A9F
:1005A0000EAEDBEF02F00B6C0C1E0D1E0E1E0C22AD
:1005B0000D220E22001E09AEE6EF02F0066C071EA9
:1005C000081E091E072208220922001E36EC03F02D
:1005D00009BEFDEF02F000AE000C066C071E081EFF
:1005E000091EE86A072208220922026C031E041E63
:1005F000051E032204220522000C00BEEDEF02F0CE
:040600000188FF0C62
:0C060400D9CFE6FFDACFE6FFE1CFD9FF47
:10061000E2CFDAFFAC6AAB6AFD0EDBB0AC88DBA2DE
:1006200002D0AC8CAB8CDBB4AC8EDBA602D0AB883A
:1006300001D0AB8ADBA802D0AC8401D0AC949E98E8
:10064000DBAC02D09D8A01D09D9A9E9ADBAE02D08F
:100650009D8801D09D98FB0EDB50AF6EAC8AAB8EAF
:0C066000E552E5CFDAFFE7CFD9FF12002A
:04066C00056A046AAD
:10067000036A026A200EE76ED890063607360836FF
:10068000093602360336043605360B50025C0C5030
:1006900003580D5004580E50055809E30B50025EE4
:1006A0000C50035A0D50045A0E50055A062AE72ED4
:0406B000E4D7120079
:0C06B400D9CFE6FFDACFE6FFE1CFD9FF97
:1006C000E2CFDAFFE652F20E0101A417ABAC03D081
:1006D000A491ABB0A481ABB4A485ABB2A487AE5057
:1006E000DF6EDF50E552E552E5CFDAFFE7CFD9FF05
:0206F0001200F6
:0E06F200D9CFE6FFDACFE6FFE1CFD9FFE2CFA6
:10070000DAFFACAC04D0AC900101A4B3AC80FD0E18
:10071000DB50AD6EE552E5CFDAFFE7CFD9FF12002F
:1007200013EE00F023EE00F0F86A019C7FEC02F07B
:0807300020EC01F0FDD71200DE
:080738000D0D0D0D0D3C2B44CD
:0407400025443D2AE5
:0C074400000000000000010000000000A8
:0A075000000000000000000000009F
:020000040030CA
:0100010022DC
:010003000FED
:00000001FF
