:020000040000FA
:06000000BFEF0AF0120040
:020006001200E6
:0600080014EF00F01200ED
:02000E000200EE
:10001000DE170000000E0000C6000000DE15000024
:080020000008000000020000CE
:08002800DACFE4FFE2CFDAFFBA
:10003000E9CFE4FFEACFE4FFE652D6EC06F0E65261
:10004000F2A005D081500301A66FA76BF2900E01BC
:10005000202B000E212322232323C251C31102E1AE
:10006000918E9190A4AA06D10301E3EC06F00E0153
:10007000125107E01751050804E28D948D92899280
:10008000126B6E50DF6EC251C31121E0000EBE5DD7
:10009000010EBF5918E2000EBE25E96E090EBF2100
:1000A000EA6E6ECFEFFFACA2FED7000E0E01BE25AA
:1000B000E96E090EBF21EA6EEF50AD6EBE2B000E49
:1000C000BF239174D7D0010EBD6F9178D3D0135157
:1000D0006DE0C551EA6A400FE96E030EEA22DFCFF8
:1000E000EFFFC551C52B090A09E0090A59E1AA0E1B
:1000F000C46F550EDF5C54E0C56B0AD0FAEC06F015
:1001000002E08D8E01D08D9EC56BC451DF5C02E094
:100110008D7C46D0540E0301415D3CE18D780E018B
:10012000B06BB16B010E046F0301895130E144C320
:100130001EF01EC01FF01E6A43511E241C6E000ECE
:100140001F201D6E000ED8801C56100E1D56040E6A
:10015000D8901D321C32E804FBE11CC082F31DC0A4
:1001600083F346C31EF01EC01FF01E6A03014551F3
:100170001E241C6E000E1F201D6E040ED8901D3212
:100180001C32E804FBE11CC084F31DC085F384C36A
:100190008EFF06D0410E415D03E10E01F2EC06F048
:1001A000DF500E01C427010E0D6F64D0162BFAEC40
:1001B00006F002E08D8E01D08D9E010E0D6F06516E
:1001C0001DE000CEE9FF01CEEAFF002B000E012367
:1001D000000EE926030EEA22DFCFEFFFFAEC06F06D
:1001E00002E08D8E01D08D9EFF0EDF5C07E106518F
:1001F00005E0010E046FB06BB16B066BFE0EDF5CA9
:1002000010E104510EE1010E066F0A6FB06BB16B85
:10021000046B006B016BFAEC06F002E08D8E01D0EE
:100220008D9EF50EDF5C0AE1010E0A6FF2EC06F01E
:10023000FAEC06F002E08D8E01D08D9E3E0ED88045
:100240000055000E015504E2006B016B066B046B58
:1002500016511C6E1D6A1D340DE21C508008000EE4
:100260001D5408E2FAEC06F002E08D8E01D08D9E5E
:10027000162BFED7F2A405D0C56B0301896BE3EC06
:1002800006F09EAA52D08D76ABA202D0AB98AB8876
:100290000E01C251C31126E0000EC05D010EC1590E
:1002A00018E2000EC025E96E080EC121EA6EAECF3D
:1002B000EFFF6CA2FED7000E0E01C025E96E080EFE
:1002C000C121EA6EEF506D6EC02B000EC1239172FA
:1002D0002CD0AE5003019E6F9F6B0E01010EBC6FC0
:1002E000917623D0AE5003019E6F9F6B0E01010EDD
:1002F0000C6F0301460E9E1906E19F5104E10E01A9
:10030000010E086F166B0301370E9E1906E19F510F
:1003100004E10E01010E096F166B03013C0E9E19DC
:1003200004E19F5102E10E010B6BE552E552E7CF6C
:10033000D9FFE552E5CFEAFFE5CFE9FFE5CFDAFFE8
:100340001100D6EC06F0EAEC0AF0570EE66EF90E54
:10035000DBCFE6FFFA0EDBCFE6FFECEC06F0EAECD3
:100360000AF0FD0EDBCFE6FFF90EDBCF14F0FA0E3C
:10037000DBCF15F0010E1426000E152214C0E6FF87
:1003800015C0E6FFECEC06F0EAEC0AF0FE0EDBCF5F
:10039000E6FF020EE76EFEEC06F0E7501626000EB2
:1003A0001722F90EDB501624146EFA0E05EC07F036
:1003B000ECEC06F0DBEF06F0D6EC06F0EAEC0AF027
:1003C000FEEC06F0FD0EDB501624146EFE0E05EC5E
:1003D00007F0B2EC09F0E552E552DBEF06F0D9CFB9
:1003E000E6FFE1CFD9FF020EE126DE6ADD6ADECF4D
:1003F00014F0DDCF15F0FD0EDBCF16F0FE0EDBCFD7
:1004000017F01450165C1550175806E30400DF2A45
:10041000010E01E3DB2AEBD7020EE15C02E2E16AA6
:10042000E552E16EE552E7CFD9FF12000E0104510B
:1004300019E00301005106080AE35A0E015D07E3C3
:100440000E01B62B000EB723010EB86FB96B720EFA
:100450000301005D07E35A0E015D04E30E01B62BB4
:10046000000EB7230E01050EB65D000EB7590BE363
:10047000010E126F176B8D84B66BB76B8D828982FC
:100480000301006B016B1200D6EC06F0917A6CA2AE
:10049000FED70CEC07F0EF50E66E91EC0AF0E55257
:1004A000DFEC06F06CA2FED7DBEF06F0D6EC06F030
:1004B000917A6CA2FED7FE0EDBCFE6FF91EC0AF03C
:1004C000E5526CA2FED7DBEF06F018EC07F0DF6A0E
:1004D0000A0EDF5C2AE2DF50090A08E0090A0BE194
:1004E000DE52550EDD6E020EDB6818D0020EDB50B8
:1004F000E76E010E11D0DF50E76E0CEC07F0E7500D
:10050000E926000EEA22010EEFCFDBFF020EDBCF61
:10051000E7FFEF50E726020EE7CFDBFF010EDBCF50
:10052000E6FFC4DFE552DF2AD3D7FB0EDB5002E043
:10053000DFEC06F0030EE15C02E2E16AE552E16EF7
:10054000DBEF06F018EC07F00E0113510DE0E66A40
:100550000A0EE66E4E0EE66E0E0EE66EB6DFE55243
:10056000E552E552E55224D0DE6ADD6A13EC07F06D
:100570000C0E145C000E15581BE2020EDB5006E058
:1005800013EC07F0420E14260E0E05D013EC07F004
:10059000360E14260E0E152214C0E6FF15C0E6FF17
:1005A00073DFE552E552DF2A010EE0E3DB2ADED7F6
:1005B0000E010B6B030EE15C02E2E16AE552E16EB3
:1005C000DBEF06F0D6EC06F0ACA2FED7FD0EDBCFDB
:1005D000E6FFA8EC0AF0E552EED3E8DB6CA2FED70A
:1005E000FD0EDBCFE6FF91EC0AF0E552E4D3A00E5E
:1005F000E66E860E1EEF07F06CA2FED70E011351B9
:100600000BE1460EE66EE66AE8DFE552E552D7DB1F
:100610000E010D5104E096DF010EF36E02D092DF61
:10062000F36AF46A1200D9CFE6FFE1CFD9FF1B0EBF
:10063000E126030EDB6A040EDB6A800EF36E050E04
:10064000F3CFDBFF3F0EF36E060EF3CFDBFF0B0E97
:10065000DB6A0C0EDB6A800EF36E0D0EF3CFDBFF50
:100660003F0EF36E0E0EF3CFDBFFC70EF36E130ECD
:10067000F3CFDBFF4B0EF36E140EF3CFDBFFF70E61
:10068000F36E150EF3CFDBFF3E0EF36E160EF3CFB7
:10069000DBFFA40EF36E170EF3CFDBFF700EF36ECD
:1006A000180EF3CFDBFFBD0EF36E190EF3CFDBFF99
:1006B0003E0EF36E1A0EF3CFDBFF986A9A6A996AC0
:1006C000966A976A936A926A9568876A8D6A8F803C
:1006D0008650010B0E01136F8D9489920E01186BD9
:1006E000196B1A6B1B6B0E01126BF26AF16AF06ADE
:1006F000000EE66EE66A000EE66EE66A5DDEE55224
:10070000E552E552E552570803E10E01010E106F64
:10071000E66A020EE66E000EE66EE66A4DDEE55211
:10072000E552E552E552570803E10E01010E116F43
:100730000301010E896F5BDF9F0EE66E5EEC0AF02F
:10074000E552280EE66EA00EE66E42EC0AF0E55287
:10075000E552400EE66EE66A6C0EE66E34EC09F089
:10076000E552E552E552400EE66EE66A6C0EE66E24
:10077000EFEC08F0E552E552E5529EAA03D023ECD7
:100780000AF0FBD7A4AA03D004EC0AF0FBD7D09E52
:100790009D8AA38AF296F28EF28C29DFD3DE9168CD
:1007A0000E010C6B0E010D6B5BD00400917C0E01F1
:1007B000BC5103E10E01BD5152E0DE6ADD6AD9CFC2
:1007C000E9FFDACFEAFFFF0ED880EE54000EED54B9
:1007D00040E39170F29EF29CEAEC0AF0DECFE9FF72
:1007E000DDCFEAFF000EE926080EEA22EF50E66EA2
:1007F000DECFE6FFDDCFE6FF76EC09F0E552E5520D
:10080000E5520400EAEC0AF0DECFE9FFDDCFEAFFB3
:10081000000EE926090EEA22EF50E66EDECF14F054
:10082000DDCF15F0000E1426010E152214C0E6FFD0
:1008300015C0E6FF76EC09F0E552E552E552EAEC28
:100840000AF0F28EF28C0400DF2A010E01E3DB2AAB
:10085000B6D7F29EF29C03D0916A0400FCD7A4D7CD
:10086000CBDE0E0128CE14F029CE15F02ACE16F0DC
:100870002BCE17F0282B000E29232A232B23200E02
:100880000E010225186E4E0E0E010321196E1A6A12
:100890001B6A17501B18E8AE02D01B3408D0185042
:1008A000145C195015581A5016581B50175801E26D
:1008B000D4D0918291849186020E0E012C1905E10B
:1008C0002D5103E12E5101E12F5101E19192040ECE
:1008D0000E012C1905E12D5103E12E5101E12F519B
:1008E00001E19194080E0E012C1905E12D5103E14F
:1008F0002E5101E12F5101E1919690700E01175197
:100900001E080DE28D940E01B851B91108E00E01D8
:10091000B86BB96B8D948D9289920E01126B0E019A
:10092000172B8D708D50010B02E08D8E01D08D9EA6
:1009300023D00E01B0CE14F0B1CE15F0B02B000EC6
:10094000B1233C0E145C000E155808E30E010A5149
:1009500005E14DDEF7DD4BDEFFD70ED00E01960E22
:10096000B05D000EB15908E30E010A5105E00E0119
:100970000A6B0E01B06BB16B0E01055115E00E0153
:100980002C512D112E112F110FE02CCE2CFE2DCE1F
:100990002DFE2ECE2EFE2FCE2FFE0E01D8902C3700
:1009A0002D372E372F3725D00E012C512D112E111A
:1009B0002F111FE02CCE2CFE2DCE2DFE2ECE2EFE86
:1009C0002FCE2FFE020E0B6E0C6A0D6A0E6A2CCE15
:1009D00006F02DCE07F02ECE08F02FCE09F0B7ECA2
:1009E00007F006C02CFE07C02DFE08C02EFE09C071
:1009F0002FFED8900E012F51000A08E6020E2C5D42
:100A0000000E2D59000E2E59000E2F590AE20E012C
:100A1000020E2C6F2D6B2E6B2F6B0E01010E056FCE
:100A200017D00E012F35000E2F1909E6D880080EB9
:100A30002C55000E2D55000E2E55000E2F5508E298
:100A40000E01080E2C6F2D6B2E6B2F6B0E01056B9C
:100A50000E01286B296B2A6B2B6B9178E7DC0E015A
:100A6000085101E129D191800E01045101E10BD11E
:100A70004B0EE66E7AEC0AF0E552FE0EE66EE66A82
:100A8000A1DDE552E5520E01135101E17CD00301D5
:100A9000010E896F82C308F083C309F035EC07F0BB
:100AA000130EDBCF0CF0140EDBCF0DF0150EDBCFE9
:100AB0000EF0160EDBCF0FF04AEC07F0070E07C062
:100AC000DBFF080E08C0DBFF090E09C0DBFF0A0EC2
:100AD0000AC0DBFF84C308F085C309F035EC07F0DA
:100AE000170EDBCF0CF0180EDBCF0DF0190EDBCF9D
:100AF0000EF01A0EDBCF0FF04AEC07F00F0E07C016
:100B0000DBFF100E08C0DBFF110E09C0DBFF120E69
:100B10000AC0DBFF0301896B070EDBCF07F0080E6D
:100B2000DBCF08F0090EDBCF09F00A0EDBCF0AF0AD
:100B3000EBEC07F0020E08C0DBFF020EDBCF00F388
:100B4000020EDBCFE6FFE66A3DDDE552E5520F0E11
:100B5000DBCF07F0100EDBCF08F0110EDBCF09F072
:100B6000120EDBCF0AF0EBEC07F0020E08C0DBFF41
:100B7000020EDBCF01F3020EDBCFE6FFE66A22DDD9
:100B8000E552E5526FD000C309F024EC07F0030EE4
:100B9000DBCF0CF0040EDBCF0DF0050EDBCF0EF03B
:100BA000060EDBCF0FF04AEC07F0070E07C0DBFFA5
:100BB000080E08C0DBFF090E09C0DBFF0A0E0AC0E1
:100BC000DBFF070EDBCF07F0080EDBCF08F0090EC6
:100BD000DBCF09F00A0EDBCF0AF0EBEC07F0020ED8
:100BE00008C0DBFF020EDBCFE6FFE66AEBDCE55276
:100BF000E55201C309F024EC07F00B0EDBCF0CF03B
:100C00000C0EDBCF0DF00D0EDBCF0EF00E0EDBCF9A
:100C10000FF04AEC07F00F0E07C0DBFF100E08C004
:100C2000DBFF110E09C0DBFF120E0AC0DBFF0F0E47
:100C3000DBCF07F0100EDBCF08F0110EDBCF09F091
:100C4000120EDBCF0AF0EBEC07F0020E08C0DBFF60
:100C5000020EDBCFE6FFE66AB5DCE552E5520E0197
:100C6000006B016BFF0EE66EE66AACDCE552E55206
:100C70000E01182B000E19231A231B230E01046BDF
:100C80000E01086B19D0410EE66E7AEC0AF0E552BF
:100C9000F50EE66EE66A96DCE552E552FF0EE66E6C
:100CA000E66A90DCE552E5520E01242B000E252366
:100CB000262327230E01086B0E01095159E0919E4E
:100CC0004B0EE66E7AEC0AF0E552030EDB6A040E78
:100CD000DB6A800EF36E050EF3CFDBFF3F0EF36E83
:100CE000060EF3CFDBFF0B0EDB6A0C0EDB6A800E09
:100CF000F36E0D0EF3CFDBFF3F0EF36E0E0EF3CF50
:100D0000DBFF0E01135101E006D03D0EE66EE66AF0
:100D100064DCE552E552F40EE66EE66A53DCE55219
:100D2000E552770EE66EE66A4DDCE552E5525F0E5F
:100D3000E66EE66A47DCE552E5520CD0710EE66ECF
:100D4000E66A40DCE552E552590EE66EE66A3ADCA8
:100D5000E552E552FF0EE66EE66A34DCE552E552F6
:100D60000E011C2B000E1D231E231F230E01096BD9
:100D70000E01065100E00E010B5102E0A2EC02F060
:100D8000ABA203D09168AB98AB886BA203D09168FB
:100D90006B986B88040065D51B0EE15C02E2E16A8A
:100DA000E552E16EE552E7CFD9FF1200D9CFE6FF59
:100DB000E1CFD9FF1200E552E7CFD9FF1200300E84
:100DC000E66E750E3BD0280EA46FA00EA56FD76EF1
:100DD000A4C3D6FFF294120076EC09F0E552E55276
:100DE000E5521200B06BB16B919CF00E026FD80E01
:100DF000036F12008D808D50010B1200FB0EDBCFB4
:100E000016F0FC0EDBCF17F01200DB501720156E2A
:100E100014C0E6FFE66E1200FD0EDBCFE9FFFE0E0A
:100E2000DBCFEAFF1200DECF14F0DDCF15F01200A9
:100E3000BDDF030EE126020EDB6A1200E66EEFEC68
:080E400001F0E552E552120039
:080E4800019E05D0019E09AED8
:100E500002D0096C018E09C003F0026A136A126A9B
:100E6000860E046E056A36EF08F0019E08D0019EDA
:100E700009AE05D0086C091EE86A0922018E09C076
:100E800003F008C002F0136A126A8E0E046E056A3F
:100E900036EF08F0016A72EC08F08AEC08F001B64F
:100EA0001AEF08F001A205D001B81AEF08F021EFFF
:100EB00008F001AA05D001B01AEF08F021EF08F000
:100EC00001B002D001A802D02DEF08F0056A0F5042
:100ED0000A24046EE86A05227E0E045EE86A055A5A
:100EE000126A136A026A036A0E500902F4CF03F011
:100EF000F3CF02F00D500902F3501326F4500222F2
:100F0000000E03220E500802F3501326F450022262
:100F1000000E03220C500902F3501226F450132243
:100F2000000E022203220D500802F3501226F45044
:100F30001322000E022203220E500702F350122643
:100F4000F4501322000E022203220C500802F45027
:100F50001226000E1322022203220D500702F45023
:100F60001226000E13220222032236EF08F0006A36
:100F7000E86A0EAEC4EF07F00B6C0C1E0D1E0E1EC1
:100F80000C220D220E22001E09AECFEF07F0066CD8
:100F9000071E081E091E072208220922001EE0EC77
:100FA00009F009BEE6EF07F000AE000C066C071E64
:100FB000081E091EE86A072208220922026C031E85
:100FC000041E051E032204220522000C00BED6EFDB
:100FD00007F00188FF0C016A72EC08F001B6F5EF2A
:100FE00007F001A20ED001B405D07F0E096EFF0EEE
:100FF000086E1FD0800E096E086A1BD0096A086A45
:1010000018D001B0FBD78F0E0A60EDD77E0E0A64B0
:10101000F5D78E0E0A5C05E0D890093208320A2A0C
:10102000F8D701A406D0086C091EE86A092209AEA7
:10103000E5D712007F0E0A6EFF0E096E086E076E6E
:1010400012007F0E01BEFF0E0A6E02D07F0E0A6EE6
:10105000800E096E086A076AF3D701AE04D0800ECD
:101060000A6E096AF7D70A6A096AF4D703500210B0
:1010700013101210F8E005BEF0D703BE0CD00450D8
:101080000510EBE0D890123613360236033604060C
:10109000D8A00506F2D70550D4E10428D2E012AE5C
:1010A00011D07F0E121402E113A00CD0132AE86AAB
:1010B0000222032207E3D880033202321332042AC9
:1010C0000428BFE00450C9E013C007F002C008F0D4
:1010D0000334096E04300A6E09320A9E01BE0A8E7C
:1010E00020EF08F009360A3602E30184017E06E1AA
:1010F00001800A6A096A086A076A12000A2803E07E
:10110000D88009321200D890093202E1018212001F
:10111000018612000E360F3602E3018C017E06E1D5
:1011200001880F6A0E6A0D6A0C6A12000F2803E02C
:10113000D8800E321200D8900E32EAE1018A1200F5
:101140000E0EF66E000EF76E000EF86E030109002B
:10115000F550AD6F0900F550AE6F03E1AD6701D0FA
:101160003DD00900F550A86F0900F550A96F09009E
:10117000F550AA6F09000900F550E96E0900F55015
:10118000EA6E090009000900F550AB6F0900F5503F
:10119000AC6F09000900F6CFAFF3F7CFB0F3F8CF8B
:1011A000B1F3A8C3F6FFA9C3F7FFAAC3F8FF030171
:1011B000AB5302E1AC5307E00900F550EE6EAB070C
:1011C000F8E2AC07F9D7AFC3F6FFB0C3F7FFB1C37E
:0E11D000F8FF0301AD07000EAE5BBFD71200A3
:0211DE00D9CF67
:1011E000E6FFDACFE6FFE1CFD9FFE2CFDAFF6C6AA4
:1011F0006B6AFD0EDBB06C88DBA202D06C8C6B8C52
:10120000DBB46C8EDBA602D06B8801D06B8ADBA8C6
:1012100002D06C8401D06C94DBBA6B86DBAC02D05C
:10122000A38A01D0A39ADBAE02D0A38801D0A398F1
:10123000FB0EDB506F6EFC0EDBCF15F015C014F00B
:10124000156A14507D6E6C8A6B8E989298846C50DF
:10125000100B04E06C50800B01E19882E552E5CF61
:08126000DAFFE7CFD9FF12000D
:08126800D9CFE6FFDACFE6FF63
:10127000E1CFD9FFE2CFDAFFAC6AAB6AFD0EDBB09B
:10128000AC88DBA202D0AC8CAB8CDBB4AC8EDBA622
:1012900002D0AB8801D0AB8ADBB8AC84DBBAAB86BA
:1012A000DBAC02D09D8A01D09D9ADBAE02D09D8836
:1012B00001D09D98FB0EDB50AF6EFC0EDBCF15F01E
:1012C00015C014F0156A14507F6EAC8AAB8E949CD6
:1012D000948EAC50100B04E0AC50800B01E1948C68
:0C12E000E552E5CFDAFFE7CFD9FF12009E
:0412EC00D9CFE6FF71
:1012F000DACFE6FFE1CFD9FFE2CFDAFFE652DF6ACD
:10130000FD0EDBCF15F015C014F0030E1514AA6EF8
:10131000FF0EE76EFC0EDBCF14F0E7501416156AD3
:101320001450A96EFB0EDB50A86EA69EA69CA68448
:10133000F250800B01E0010EDF6EF29E550EA76E9B
:10134000AA0EA76EA682A6B2FED7DF50E8B0F28E34
:10135000E8A0F29EA694E552E552E5CFDAFFE7CF8A
:04136000D9FF12009F
:0C136400D9CFE6FFDACFE6FFE1CFD9FFDA
:10137000E2CFDAFFFC0EDBCF14F0FD0EDBCF15F071
:1013800015C014F0156A030E1414AA6EFF0EE76E52
:10139000FC0EDBCF14F0FD0EDBCF15F0E75014167A
:1013A000156A1450A96EA69CA69EA6800000000097
:1013B000A85000D0E552E5CFDAFFE7CFD9FF120001
:1013C000056A046A036A026A200EE76ED890063640
:1013D00007360836093602360336043605360B5012
:1013E000025C0C5003580D5004580E50055809E388
:1013F0000B50025E0C50035A0D50045A0E50055A01
:08140000062AE72EE4D71200D2
:08140800D9CFE6FFDACFE6FFC1
:10141000E1CFD9FFE2CFDAFFE652F20E0301B217B5
:101420006BAC03D0B2916BB0B2816BB4B2856BB2CE
:10143000B2876E50DF6EDF50E552E552E5CFDAFF3E
:06144000E7CFD9FF120006
:0A144600D9CFE6FFDACFE6FFE1CFD1
:10145000D9FFE2CFDAFFE652F20E0301B317ABACCD
:1014600003D0B391ABB0B381ABB4B385ABB2B387A8
:10147000AE50DF6EDF50E552E552E5CFDAFFE7CF41
:04148000D9FF12007E
:0C148400D9CFE6FFDACFE6FFE1CFD9FFB9
:10149000E2CFDAFFE652E652FC0EDBCFDEFFDBCF17
:1014A000DDFF010EDB50D76EDF50D66EE552E55200
:0C14B000E552E5CFDAFFE7CFD9FF1200CC
:0414BC00D9CFE6FF9F
:1014C000DACFE6FFE1CFD9FFE2CFDAFFFD0EDB5046
:1014D0007F0BD56ED76AD66AF294FD0EDBAE02D0D2
:1014E000F28A01D0F29AD58EE552E5CFDAFFE7CF46
:0414F000D9FF12000E
:0C14F400FF0EE350216EEF0E01D0F30E4E
:10150000E76EE72E81EF0AF00C0E206EE76AE72EF9
:1015100087EF0AF0202E86EF0AF0212E7FEF0AF0E7
:021520001200B7
:0E152200D9CFE6FFDACFE6FFE1CFD9FFE2CF67
:10153000DAFF6CAC04D06C900301B2B36C80FD0E8A
:10154000DB506D6EE552E5CFDAFFE7CFD9FF120031
:10155000D9CFE6FFDACFE6FFE1CFD9FFE2CFDAFF5E
:10156000ACAC04D0AC900301B3B3AC80FD0EDB5047
:0E157000AD6EE552E5CFDAFFE7CFD9FF1200EE
:02157E001DEE60
:1015800000F02DEE00F0F86A019CCFEC0AF0A0EC20
:0E15900008F003EC00F013EC03F0FBD71200A0
:02159E00600EDD
:1015A000F36E00EE00F00F0E01D81200EA6002D0D8
:0E15B000EE6AFCD7F350E9601200EE6AFCD739
:0215BE003135C5
:1015C0003A34333A353400417072203236203230AA
:0315D000313700B0
:0615D400A6B2FED71200D2
:0415DA00065A725AE1
:0215DE004800C3
:1015E00000000000000000000000000000000000FB
:1015F00000000000000000000000000000000000EB
:1016000000000000000000000000000000000000DA
:1016100000000000000000000000000000000000CA
:1016200000000000000000000000000000000000BA
:1016300000000000000000000000000000000000AA
:10164000000000000000000000000000000000009A
:10165000000000000000000000000000000000008A
:10166000000000000000000000000000000000007A
:10167000000000000000000000000000000000006A
:10168000000000000000000000000000000000005A
:10169000000000000000000000000000000000004A
:1016A000000000000000000000000000000000003A
:1016B000000000000000000000000000000000002A
:1016C000000000000000000000000000000000001A
:1016D00000000000000000000000000000005300B7
:1016E00000000000000000000000000000000000FA
:1016F00000000000000000000000000000000000EA
:1017000000000000000000000000000000000000D9
:1017100000000000000000000000000000000000C9
:1017200000000000000000000000000000000000B9
:1017300000000000000000000000000000000000A9
:101740000000000000000000000000000000000099
:101750000000000000000000000000000000000089
:101760000000000000000000000000000000000079
:101770000000000000000000000000000000000069
:101780000000000000000000000000000000000059
:101790000000000000000000000000000000000049
:1017A0000000000000000000000000000000000039
:1017B0000000000000000000000000000000000029
:1017C0000000000000000000000000000000000019
:0E17D00000000000000000000000000000000B
:0217DE00000009
:1017E00000000001000000000000000000000000F8
:1017F00000010000000000000000000000000000E8
:101800000000000000000000000000000000C715FC
:1018100000BE15000D0D0D0D0D3C2B4426443D2A38
:101820000D0D0D0D0D3C2B4425443D2A5542010460
:101830000000000000000000555102000000000000
:1018400000000000554D008700000000000000006F
:101850005553580100FF0000000000005553590186
:1018600000FF0000000000005569000000000000BB
:1018700000000000556700000000000000000000AC
:101880000000000000000000000000000000000058
:101890000000000000000000000000000000000048
:0418A0000000FF0045
:020000040030CA
:0100010006F8
:010002001FDE
:0100030013E9
:01000400F308
:010005008377
:010006008574
:01000800FFF8
:01000900C036
:01000A00FFF6
:01000B00E014
:01000C00FFF4
:01000D0040B2
:00000001FF
