:020000040000FA
:06000000C6EF0AF0120039
:020006001200E6
:060008001AEF00F01200E7
:02000E000300ED
:1000100074180000600000003A000000E8170000BB
:10002000C00300008C000000E8150000000800007C
:0400300000020000CA
:0C003400DACFE4FFE2CFDAFFE9CFE4FF0F
:10004000EACFE4FFE652DBEC06F0E652F2A005D080
:1000500081500301A66FA76BF2900001802B000E68
:100060008123822383239651971102E1918E9190EF
:10007000A4AA0AD10301F2EC06F00001725107E0D4
:100080007751050804E28D948D928992726B6E50BF
:10009000DF6E9651971121E0000E925D010E93598B
:1000A00018E2000E9225E96E090E9321EA6E6ECFDA
:1000B000EFFFACA2FED7000E00019225E96E090EFB
:1000C0009321EA6EEF50AD6E922B000E9323917444
:1000D000DBD0010E916F9178D7D073516DE09951BB
:1000E000EA6A400FE96E030EEA22DFCFEFFF995173
:1000F000992B090A09E0090A59E1AA0E986F550ED1
:10010000DF5C54E0996B0AD001EC07F002E08D8EC1
:1001100001D08D9E996B9851DF5C02E08D7C46D0BA
:10012000540E0301415D3DE18D780401406B416B4C
:100130000001010E646F0301895130E144C31EF0D8
:100140001EC01FF01E6A43511E241C6E000E1F208D
:100150001D6E000ED8801C56100E1D56040ED89031
:100160001D321C32E804FBE11CC082F31DC083F386
:1001700046C31EF01EC01FF01E6A030145511E2417
:100180001C6E000E1F201D6E040ED8901D321C32F6
:10019000E804FBE11CC084F31DC085F384C38EFF1B
:1001A00005D0410E415D02E1E8EC06F0DF500001B0
:1001B0009827010E6D6F68D0762B01EC07F002E0F6
:1001C0008D8E01D08D9E010E6D6F66511FE060C057
:1001D000E9FF61C0EAFF602B000E6123000EE926F3
:1001E000030EEA22DFCFEFFF01EC07F002E08D8E75
:1001F00001D08D9EFF0EDF5C09E1665107E0010E24
:10020000646F0401406B416B0001666BFE0EDF5CA6
:1002100012E1645110E1010E666F6A6F0401406BD8
:10022000416B0001646B606B616B01EC07F002E0F5
:100230008D8E01D08D9EF50EDF5C0AE1010E6A6F96
:10024000E8EC06F001EC07F002E08D8E01D08D9E07
:100250003E0ED8806055000E615504E2606B616B04
:10026000666B646B76511C6E1D6A1D340DE21C506A
:100270008008000E1D5408E201EC07F002E08D8EAC
:1002800001D08D9E762BFED7F2A405D0996B030189
:10029000896BF2EC06F09EAA52D08D76ABA202D00A
:1002A000AB98AB8800019651971126E0000E945D43
:1002B000010E955918E2000E9425E96E080E95215D
:1002C000EA6EAECFEFFF6CA2FED7000E00019425C0
:1002D000E96E080E9521EA6EEF506D6E942B000EBC
:1002E000952391722CD0AE5003019E6F9F6B00013D
:1002F000010E906F917623D0AE5003019E6F9F6BDD
:100300000001010E6C6F0301460E9E1906E19F511C
:1003100004E10001010E686F766B0301370E9E1930
:1003200006E19F5104E10001010E696F766B030144
:100330003C0E9E1904E19F5102E100016B6BE552F6
:10034000E552E7CFD9FFE552E5CFEAFFE5CFE9FF78
:10035000E5CFDAFF1100DBEC06F0F1EC0AF0570E06
:10036000E66EF90EDBCFE6FFFA0EDBCFE6FFFBEC25
:1003700006F0F1EC0AF0FD0EDBCFE6FFF90EDBCF65
:1003800014F0FA0EDBCF15F0010E1426000E152224
:1003900014C0E6FF15C0E6FFFBEC06F0F1EC0AF036
:1003A000FE0EDBCFE6FF020EE76E05EC07F0E7502E
:1003B0001626000E1722F90EDB501624146EFA0EC4
:1003C0000CEC07F0FBEC06F0E0EF06F0DBEC06F0DF
:1003D000F1EC0AF005EC07F0FD0EDB501624146E6C
:1003E000FE0E0CEC07F0B9EC09F0E552E552E0EF37
:1003F00006F0D9CFE6FFE1CFD9FF020EE126DE6A93
:10040000DD6ADECF14F0DDCF15F0FD0EDBCF16F088
:10041000FE0EDBCF17F01450165C1550175806E38C
:100420000400DF2A010E01E3DB2AEBD7020EE15CB8
:1004300002E2E16AE552E16EE552E7CFD9FF120030
:100440000001645119E00301005106080AE35A0E45
:10045000015D07E30401462B000E4723010E486FA0
:10046000496B720E0301005D07E35A0E015D04E360
:100470000401462B000E47230401050E465D000EC5
:1004800047590DE30001010E726F776B8D840401F3
:10049000466B476B8D8289820301006B016B1200F2
:1004A000DBEC06F0917A6CA2FED713EC07F0EF506C
:1004B000E66E98EC0AF0E552E4EC06F06CA2FED78A
:1004C000E0EF06F0DBEC06F0917A6CA2FED7FE0EB0
:1004D000DBCFE6FF98EC0AF0E5526CA2FED7E0EF26
:1004E00006F01FEC07F0DF6A0A0EDF5C2AE2DF503D
:1004F000090A08E0090A0BE1DE52550EDD6E020E14
:10050000DB6818D0020EDB50E76E010E11D0DF5011
:10051000E76E13EC07F0E750E926000EEA22010E21
:10052000EFCFDBFF020EDBCFE7FFEF50E726020E37
:10053000E7CFDBFF010EDBCFE6FFC4DFE552DF2AAA
:10054000D3D7FB0EDB5002E0E4EC06F0030EE15CD7
:1005500002E2E16AE552E16EE0EF06F01FEC07F01F
:10056000000173510DE0E66A0A0EE66EDE0EE66EDD
:10057000030EE66EB6DFE552E552E552E55224D0B1
:10058000DE6ADD6A1AEC07F00C0E145C000E1558DA
:100590001BE2020EDB5006E01AEC07F0D20E142626
:1005A000030E05D01AEC07F0C60E1426030E152212
:1005B00014C0E6FF15C0E6FF73DFE552E552DF2AFF
:1005C000010EE0E3DB2ADED700016B6B030EE15C7A
:1005D00002E2E16AE552E16EE0EF06F0ECDBACA28C
:1005E000FED7FD0EDBCFE6FFAFEC0AF0E552E8D315
:1005F000E2DB6CA2FED7FD0EDBCFE6FF98EC0AF043
:10060000E552DED3A00EE66E860E25EF07F06CA253
:10061000FED7000173510BE1460EE66EE66AE8DF95
:10062000E552E552D1DB00016D5104E097DF010E88
:10063000F36E02D093DFF36AF46A1200D9CFE6FFBB
:10064000E1CFD9FF1B0EE126030EDB6A040EDB6A45
:10065000800EF36E050EF3CFDBFF3F0EF36E060E3A
:10066000F3CFDBFF0B0EDB6A0C0EDB6A800EF36E42
:100670000D0EF3CFDBFF3F0EF36E0E0EF3CFDBFF5D
:10068000C70EF36E130EF3CFDBFF4B0EF36E140E9B
:10069000F3CFDBFFF70EF36E150EF3CFDBFF3E0E4D
:1006A000F36E160EF3CFDBFF5C0EF36E170EF3CF77
:1006B000DBFF8F0EF36E180EF3CFDBFFC20EF36E6F
:1006C000190EF3CFDBFF3E0EF36E1A0EF3CFDBFFF6
:1006D0009A6A996A966A976A936A926A9568876A2B
:1006E0008D6A8D9489920001786B796B7A6B7B6B44
:1006F0000001726BF26AF16AF06A000EE66EE66A59
:10070000000EE66EE66A62DEE552E552E552E5521B
:10071000570803E10001010E706FE66A020EE66EF3
:10072000000EE66EE66A52DEE552E552E552E5520B
:10073000570803E10001010E716F0301010E896F7B
:1007400061DF9F0EE66E65EC0AF0E552280EE66E5C
:10075000A00EE66E49EC0AF0E552E552400EE66E58
:10076000E66A6C0EE66E3BEC09F0E552E552E552A6
:10077000400EE66EE66A6C0EE66EF6EC08F0E552A8
:10078000E552E5529EAA03D02AEC0AF0FBD7A4AAB0
:1007900003D00BEC0AF0FBD7D09E9D8AA38AF29679
:1007A000F28EF28C2FDFDADE916800016C6B0001B3
:1007B0006D6B5BD00400917C0001905103E100015E
:1007C000915152E0DE6ADD6AD9CFE9FFDACFEAFF64
:1007D000FF0ED880EE54000EED5440E39170F29E6F
:1007E000F29CF1EC0AF0DECFE9FFDDCFEAFF000E6C
:1007F000E926080EEA22EF50E66EDECFE6FFDDCFF7
:10080000E6FF7DEC09F0E552E552E5520400F1EC1B
:100810000AF0DECFE9FFDDCFEAFF000EE926090E80
:10082000EA22EF50E66EDECF14F0DDCF15F0000EB9
:100830001426010E152214C0E6FF15C0E6FF7DEC5C
:1008400009F0E552E552E552F1EC0AF0F28EF28C35
:100850000400DF2A010E01E3DB2AB6D7F29EF29CE8
:1008600003D0916A0400FCD7A4D7D1DE000188C070
:1008700014F089C015F08AC016F08BC017F0882BD1
:10088000000E89238A238B23200E00016225186E17
:100890004E0E00016321196E1A6A1B6A17501B184D
:1008A000E8AE02D01B3408D01850145C195015580B
:1008B0001A5016581B50175801E2D4D091829184D7
:1008C0009186020E00018C1905E18D5103E18E51D4
:1008D00001E18F5101E19192040E00018C1905E1B3
:1008E0008D5103E18E5101E18F5101E19194080E88
:1008F00000018C1905E18D5103E18E5101E18F5109
:1009000001E191969070000177511E080DE28D94DF
:1009100004014851491108E00401486B496B8D946A
:100920008D9289920001726B0001772B8D708D5032
:10093000010B02E08D8E01D08D9E23D0040140C4B6
:1009400014F041C415F0402B000E41233C0E145C02
:10095000000E155808E300016A5105E153DEFEDD83
:1009600051DEFFD70ED00401960E405D000E4159B6
:1009700008E300016A5105E000016A6B0401406B65
:10098000416B0001655115E000018C518D118E11F4
:100990008F110FE08CC08CF08DC08DF08EC08EF06A
:1009A0008FC08FF00001D8908C378D378E378F37FE
:1009B00025D000018C518D118E118F111FE08CC03C
:1009C0008CF08DC08DF08EC08EF08FC08FF0020E37
:1009D0000B6E0C6A0D6A0E6A8CC006F08DC007F0B3
:1009E0008EC008F08FC009F0BEEC07F006C08CF096
:1009F00007C08DF008C08EF009C08FF0D8900001BC
:100A00008F51000A08E6020E8C5D000E8D59000E13
:100A10008E59000E8F590AE20001020E8C6F8D6B09
:100A20008E6B8F6B0001010E656F17D000018F3543
:100A3000000E8F1909E6D880080E8C55000E8D55D2
:100A4000000E8E55000E8F5508E20001080E8C6FC7
:100A50008D6B8E6B8F6B0001656B0001886B896BF2
:100A60008A6B8B6B9178ECDC0001685101E129D134
:100A700091800001645101E10BD14B0EE66E81ECD7
:100A80000AF0E552FE0EE66EE66AA8DDE552E55292
:100A90000001735101E17CD00301010E896F82C313
:100AA00008F083C309F03CEC07F0130EDBCF0CF029
:100AB000140EDBCF0DF0150EDBCF0EF0160EDBCFD4
:100AC0000FF051EC07F0070E07C0DBFF080E08C05F
:100AD000DBFF090E09C0DBFF0A0E0AC0DBFF84C37F
:100AE00008F085C309F03CEC07F0170EDBCF0CF0E3
:100AF000180EDBCF0DF0190EDBCF0EF01A0EDBCF88
:100B00000FF051EC07F00F0E07C0DBFF100E08C00E
:100B1000DBFF110E09C0DBFF120E0AC0DBFF030171
:100B2000896B070EDBCF07F0080EDBCF08F0090E4C
:100B3000DBCF09F00A0EDBCF0AF0F2EC07F0020E71
:100B400008C0DBFF020EDBCF00F3020EDBCFE6FFB7
:100B5000E66A44DDE552E5520F0EDBCF07F0100EDA
:100B6000DBCF08F0110EDBCF09F0120EDBCF0AF05D
:100B7000F2EC07F0020E08C0DBFF020EDBCF01F340
:100B8000020EDBCFE6FFE66A29DDE552E5526FD0C3
:100B900000C309F02BEC07F0030EDBCF0CF0040EC2
:100BA000DBCF0DF0050EDBCF0EF0060EDBCF0FF026
:100BB00051EC07F0070E07C0DBFF080E08C0DBFF93
:100BC000090E09C0DBFF0A0E0AC0DBFF070EDBCFF0
:100BD00007F0080EDBCF08F0090EDBCF09F00A0E94
:100BE000DBCF0AF0F2EC07F0020E08C0DBFF020ECA
:100BF000DBCFE6FFE66AF2DCE552E55201C309F01D
:100C00002BEC07F00B0EDBCF0CF00C0EDBCF0DF056
:100C10000D0EDBCF0EF00E0EDBCF0FF051EC07F018
:100C20000F0E07C0DBFF100E08C0DBFF110E09C05E
:100C3000DBFF120E0AC0DBFF0F0EDBCF07F0100E3A
:100C4000DBCF08F0110EDBCF09F0120EDBCF0AF07C
:100C5000F2EC07F0020E08C0DBFF020EDBCFE6FF6E
:100C6000E66ABCDCE552E5520001606B616BFF0E89
:100C7000E66EE66AB3DCE552E5520001782B000E21
:100C800079237A237B230001646B0001686B19D000
:100C9000410EE66E81EC0AF0E552F50EE66EE66A6C
:100CA0009DDCE552E552FF0EE66EE66A97DCE55202
:100CB000E5520001842B000E852386238723000143
:100CC000686B0001695159E0919E4B0EE66E81EC14
:100CD0000AF0E552030EDB6A040EDB6A800EF36E47
:100CE000050EF3CFDBFF3F0EF36E060EF3CFDBFFF7
:100CF0000B0EDB6A0C0EDB6A800EF36E0D0EF3CF6B
:100D0000DBFF3F0EF36E0E0EF3CFDBFF00017351DE
:100D100001E006D03D0EE66EE66A6ADCE552E55279
:100D2000F40EE66EE66A5ADCE552E552770EE66EA0
:100D3000E66A54DCE552E5525F0EE66EE66A4EDC8A
:100D4000E552E5520CD0710EE66EE66A47DCE552DC
:100D5000E552590EE66EE66A41DCE552E552FF0EB9
:100D6000E66EE66A3BDCE552E55200017C2B000EA4
:100D70007D237E237F230001696B0001665100E023
:100D800000016B5102E0AEEC02F0ABA203D091681F
:100D9000AB98AB886BA203D091686B986B8804000A
:100DA00065D51B0EE15C02E2E16AE552E16EE552B7
:100DB000E7CFD9FF1200D9CFE6FFE1CFD9FF12006C
:100DC000E552E7CFD9FF1200300EE66E750E3DD02A
:100DD0000401406B416B919C0001F00E626FD80ED4
:100DE000636F1200280EA46FA00EA56FD76EA4C368
:100DF000D6FFF29412007DEC09F0E552E552E5527F
:100E000012008D808D50010B1200FB0EDBCF16F00F
:100E1000FC0EDBCF17F01200DB501720156E14C04C
:100E2000E6FFE66E1200FD0EDBCFE9FFFE0EDBCF24
:100E3000EAFF1200DECF14F0DDCF15F01200BBDFA9
:100E4000030EE126020EDB6A1200E66EF9EC01F0F9
:060E5000E552E55212001C
:0A0E5600019E05D0019E09AE02D0F6
:100E6000096C018E09C003F0026A136A126A860EC9
:100E7000046E056A3DEF08F0019E08D0019E09AEA0
:100E800005D0086C091EE86A0922018E09C003F02A
:100E900008C002F0136A126A8E0E046E056A3DEFF6
:100EA00008F0016A79EC08F091EC08F001B621EF46
:100EB00008F001A205D001B821EF08F028EF08F0F2
:100EC00001AA05D001B021EF08F028EF08F001B029
:100ED00002D001A802D034EF08F0056A0F500A24AE
:100EE000046EE86A05227E0E045EE86A055A126AFC
:100EF000136A026A036A0E500902F4CF03F0F3CFBB
:100F000002F00D500902F3501326F4500222000E95
:100F100003220E500802F3501326F4500222000E52
:100F200003220C500902F3501226F4501322000E33
:100F3000022203220D500802F3501226F45013220D
:100F4000000E022203220E500702F3501226F45024
:100F50001322000E022203220C500802F450122623
:100F6000000E1322022203220D500702F450122613
:100F7000000E1322022203223DEF08F0006AE86A05
:100F80000EAECBEF07F00B6C0C1E0D1E0E1E0C22CE
:100F90000D220E22001E09AED6EF07F0066C071ECA
:100FA000081E091E072208220922001EE7EC09F08C
:100FB00009BEEDEF07F000AE000C066C071E081E20
:100FC000091EE86A072208220922026C031E041E79
:100FD000051E032204220522000C00BEDDEF07F0EF
:100FE0000188FF0C016A79EC08F001B6FCEF07F00C
:100FF00001A20ED001B405D07F0E096EFF0E086E5F
:101000001FD0800E096E086A1BD0096A086A18D0C2
:1010100001B0FBD78F0E0A60EDD77E0E0A64F5D7BC
:101020008E0E0A5C05E0D890093208320A2AF8D7F9
:1010300001A406D0086C091EE86A092209AEE5D7AA
:1010400012007F0E0A6EFF0E096E086E076E120008
:101050007F0E01BEFF0E0A6E02D07F0E0A6E800E5A
:10106000096E086A076AF3D701AE04D0800E0A6ED3
:10107000096AF7D70A6A096AF4D7035002101310F5
:101080001210F8E005BEF0D703BE0CD004500510D6
:10109000EBE0D89012361336023603360406D8A099
:1010A0000506F2D70550D4E10428D2E012AE11D0E3
:1010B0007F0E121402E113A00CD0132AE86A022258
:1010C000032207E3D880033202321332042A0428B1
:1010D000BFE00450C9E013C007F002C008F00334B9
:1010E000096E04300A6E09320A9E01BE0A8E27EF8D
:1010F00008F009360A3602E30184017E06E1018028
:101100000A6A096A086A076A12000A2803E0D88096
:1011100009321200D890093202E1018212000186E0
:1011200012000E360F3602E3018C017E06E10188C3
:101130000F6A0E6A0D6A0C6A12000F2803E0D8804D
:0E1140000E321200D8900E32EAE1018A12003F
:02114E000E0E83
:10115000F66E000EF76E000EF86E03010900F550F2
:10116000AD6F0900F550AE6F03E1AD6701D03DD022
:101170000900F550A86F0900F550A96F0900F55056
:10118000AA6F09000900F550E96E0900F550EA6EF2
:10119000090009000900F550AB6F0900F550AC6F6C
:1011A00009000900F6CFAFF3F7CFB0F3F8CFB1F3F2
:1011B000A8C3F6FFA9C3F7FFAAC3F8FF0301AB5307
:1011C00002E1AC5307E00900F550EE6EAB07F8E220
:1011D000AC07F9D7AFC3F6FFB0C3F7FFB1C3F8FF51
:0C11E0000301AD07000EAE5BBFD712008C
:0411EC00D9CFE6FF72
:1011F000DACFE6FFE1CFD9FFE2CFDAFF6C6A6B6AA4
:10120000FD0EDBB06C88DBA202D06C8C6B8CDBB487
:101210006C8EDBA602D06B8801D06B8ADBA802D073
:101220006C8401D06C94DBBA6B86DBAC02D0A38AF1
:1012300001D0A39ADBAE02D0A38801D0A398FB0E05
:10124000DB506F6EFC0EDBCF15F015C014F0156A85
:1012500014507D6E6C8A6B8E989298846C50100B33
:1012600004E06C50800B01E19882E552E5CFDAFF93
:06127000E7CFD9FF1200D8
:0A127600D9CFE6FFDACFE6FFE1CFA3
:10128000D9FFE2CFDAFFAC6AAB6AFD0EDBB0AC8807
:10129000DBA202D0AC8CAB8CDBB4AC8EDBA602D074
:1012A000AB8801D0AB8ADBB8AC84DBBAAB86DBACF5
:1012B00002D09D8A01D09D9ADBAE02D09D8801D0DC
:1012C0009D98FB0EDB50AF6EFC0EDBCF15F015C00A
:1012D00014F0156A14507F6EAC8AAB8E949C948E79
:1012E000AC50100B04E0AC50800B01E1948CE55243
:0A12F000E5CFDAFFE7CFD9FF1200C7
:0612FA00D9CFE6FFDACFB8
:10130000E6FFE1CFD9FFE2CFDAFFE652DF6AFD0E5A
:10131000DBCF15F015C014F0030E1514AA6EFF0EE6
:10132000E76EFC0EDBCF14F0E7501416156A14506C
:10133000A96EFB0EDB50A86EA69EA69CA684F2505A
:10134000800B01E0010EDF6EF29E550EA76EAA0E15
:10135000A76EA682A6B2FED7DF50E8B0F28EE8A054
:10136000F29EA694E552E552E5CFDAFFE7CFD9FF2A
:02137000120069
:0E137200D9CFE6FFDACFE6FFE1CFD9FFE2CF19
:10138000DAFFFC0EDBCF14F0FD0EDBCF15F015C03D
:1013900014F0156A030E1414AA6EFF0EE76EFC0E0D
:1013A000DBCF14F0FD0EDBCF15F0E7501416156AF5
:1013B0001450A96EA69CA69EA68000000000A8500E
:0E13C00000D0E552E5CFDAFFE7CFD9FF1200EB
:0213CE00056AAE
:1013D000046A036A026A200EE76ED8900636073662
:1013E0000836093602360336043605360B50025CE1
:1013F0000C5003580D5004580E50055809E30B507B
:10140000025E0C50035A0D50045A0E50055A062A1B
:06141000E72EE4D71200F4
:0A141600D9CFE6FFDACFE6FFE1CF01
:10142000D9FFE2CFDAFFE652F20E0301B2176BAC3E
:1014300003D0B2916BB0B2816BB4B2856BB2B2879C
:101440006E50DF6EDF50E552E552E5CFDAFFE7CFB1
:04145000D9FF1200AE
:0C145400D9CFE6FFDACFE6FFE1CFD9FFE9
:10146000E2CFDAFFE652F20E0301B317ABAC03D0C2
:10147000B391ABB0B381ABB4B385ABB2B387AE506D
:10148000DF6EDF50E552E552E5CFDAFFE7CFD9FF57
:02149000120048
:0E149200D9CFE6FFDACFE6FFE1CFD9FFE2CFF8
:1014A000DAFFE652E652FC0EDBCFDEFFDBCFDDFFDC
:1014B000010EDB50D76EDF50D66EE552E552E55295
:0A14C000E5CFDAFFE7CFD9FF1200F5
:0614CA00D9CFE6FFDACFE6
:1014D000E6FFE1CFD9FFE2CFDAFFFD0EDB507F0B55
:1014E000D56ED76AD66AF294FD0EDBAE02D0F28AD0
:1014F00001D0F29AD58EE552E5CFDAFFE7CFD9FFDA
:021500001200D7
:0E150200FF0EE350216EEF0E01D0F30EE76EE8
:10151000E72E88EF0AF00C0E206EE76AE72E8EEFBA
:101520000AF0202E8DEF0AF0212E86EF0AF012002D
:10153000D9CFE6FFDACFE6FFE1CFD9FFE2CFDAFF7E
:101540006CAC04D06C900301B2B36C80FD0EDB5028
:0E1550006D6EE552E5CFDAFFE7CFD9FF12004E
:02155E00D9CFE3
:10156000E6FFDACFE6FFE1CFD9FFE2CFDAFFACAC9E
:1015700004D0AC900301B3B3AC80FD0EDB50AD6E74
:0C158000E552E5CFDAFFE7CFD9FF1200FB
:04158C001DEE00F060
:101590002DEE00F0F86A019CD6EC0AF0A7EC08F0FA
:0C15A00003EC00F01EEC03F0FBD712007F
:0415AC00600EF36E6C
:1015B00000EE00F00F0E01D81200EA6002D0EE6AD1
:0C15C000FCD7F350E9601200EE6AFCD783
:0415CC0031373A3148
:1015D000303A3037004A756E2032322032303136A0
:0115E000000A
:0615E200A6B2FED71200C4
:0815E8004800000000000000B3
:1015F00000000000000000000000000000000000EB
:1016000000000000000000000000000000000000DA
:1016100000000000000000000000000000000000CA
:1016200000000000000000000000000000000000BA
:1016300000000000000000000000000000000000AA
:10164000000000000000000000000000000000009A
:10165000000000000000000000000000000000008A
:10166000000000000000000000000000000000007A
:10167000000000000000000000000000000000006A
:10168000000000000000000000000000000000005A
:10169000000000000000000000000000000000004A
:1016A000000000000000000000000000000000003A
:1016B000000000000000000000000000000000002A
:1016C000000000000000000000000000000000001A
:1016D000000000000000000000000000000000000A
:1016E00000000000000000005300000000000000A7
:1016F00000000000000000000000000000000000EA
:1017000000000000000000000000000000000000D9
:1017100000000000000000000000000000000000C9
:1017200000000000000000000000000000000000B9
:1017300000000000000000000000000000000000A9
:101740000000000000000000000000000000000099
:101750000000000000000000000000000000000089
:101760000000000000000000000000000000000079
:101770000000000000000000000000000000000069
:101780000000000000000000000000000000000059
:101790000000000000000000000000000000000049
:1017A0000000000000000000000000000000000039
:1017B0000000000000000000000000000000000029
:1017C0000000000000000000000000000000000019
:1017D0000000000000000000000000000000000009
:0817E000000000000000000001
:0817E800D51500CC15000D0D14
:1017F0000D0D0D3C2B4426443D2A0D0D0D0D0D3CC9
:101800002B4425443D2A55420104000000000000FD
:101810000000555102000000000000000000554D7E
:10182000008700000000000000005553580100FF31
:101830000000000000005553590100FF00000000A7
:10184000000055690000000000000000000055671E
:101850000000000000000000000000000000000088
:101860000000000000000000000000000000000078
:041870000000000074
:0C18740000000000000100000000000067
:101880000000000000000001000000000000000057
:101890000000000000000000000000000000000048
:0E18A000000000000000000000000000FF003B
:020000040030CA
:0100010006F8
:010002001FDE
:0100030013E9
:01000400F308
:010005008377
:010006008574
:01000800FFF8
:01000900C036
:01000A00FFF6
:01000B00E014
:01000C00FFF4
:01000D0040B2
:00000001FF
